{
  "transactions": [
    {
      "hash": "0x2ec30751a9b4a1b1fe626513e35236f39ad91ce4e970454ee656e8eba0e00104",
      "transactionType": "CALL",
      "contractName": null,
      "contractAddress": "0x0726a519599a0c0893ffc08d22450a2f34e1b796",
      "function": "addMembers(address[])",
      "arguments": [
        "[0x70997970C51812dc3A010C7d01b50e0d17dc79C8, 0x3C44CdDdB6a900fa2b585dd299e03d12FA4293BC]"
      ],
      "transaction": {
        "from": "0xc11292764c310b988c50634ebe11c636c10ac554",
        "to": "0x0726a519599a0c0893ffc08d22450a2f34e1b796",
        "gas": "0x191c1",
        "value": "0x0",
        "input": "0x6f4d469b0000000000000000000000000000000000000000000000000000000000000020000000000000000000000000000000000000000000000000000000000000000200000000000000000000000070997970c51812dc3a010c7d01b50e0d17dc79c80000000000000000000000003c44cdddb6a900fa2b585dd299e03d12fa4293bc",
        "nonce": "0x1",
        "chainId": "0x13882"
      },
      "additionalContracts": [],
      "isFixedGasLimit": false
    },
    {
      "hash": "0xb306971a43435b21f908bd99853847f44c7dd7c45e76572944dca9e156498c4c",
      "transactionType": "CALL",
      "contractName": null,
      "contractAddress": "0x0726a519599a0c0893ffc08d22450a2f34e1b796",
      "function": "createVotingSession(string[],bool[],uint256)",
      "arguments": [
        "[Should we deploy to mainnet?]",
        "[false]",
        "3600"
      ],
      "transaction": {
        "from": "0xc11292764c310b988c50634ebe11c636c10ac554",
        "to": "0x0726a519599a0c0893ffc08d22450a2f34e1b796",
        "gas": "0x40664",
        "value": "0x0",
        "input": "0x26a38077000000000000000000000000000000000000000000000000000000000000006000000000000000000000000000000000000000000000000000000000000000e00000000000000000000000000000000000000000000000000000000000000e1000000000000000000000000000000000000000000000000000000000000000010000000000000000000000000000000000000000000000000000000000000020000000000000000000000000000000000000000000000000000000000000001c53686f756c64207765206465706c6f7920746f206d61696e6e65743f0000000000000000000000000000000000000000000000000000000000000000000000010000000000000000000000000000000000000000000000000000000000000000",
        "nonce": "0x2",
        "chainId": "0x13882"
      },
      "additionalContracts": [],
      "isFixedGasLimit": false
    }
  ],
  "receipts": [
    {
      "status": "0x1",
      "cumulativeGasUsed": "0x122de",
      "logs": [
        {
          "address": "0x0726a519599a0c0893ffc08d22450a2f34e1b796",
          "topics": [
            "0xdbb6dbf5abe4d1b228b366f1d25c84f6fde449194d58dd3cf3351142dae5ab60",
            "0xcead85dcdfcdc3f9aa5aa82658669488859283d53026229b179f017824d15a1f",
            "0x000000000000000000000000c11292764c310b988c50634ebe11c636c10ac554"
          ],
          "data": "0x0000000000000000000000000000000000000000000000000000000068ad81dc",
          "blockHash": "0xdb9dfedfd4e886e554d1a4df10f60de98ff1df413b690a537a0a9952a452331a",
          "blockNumber": "0x1870831",
          "transactionHash": "0x2ec30751a9b4a1b1fe626513e35236f39ad91ce4e970454ee656e8eba0e00104",
          "transactionIndex": "0x0",
          "logIndex": "0x0",
          "removed": false
        },
        {
          "address": "0x0000000000000000000000000000000000001010",
          "topics": [
            "0x4dfe1bbbcf077ddc3e01291eea2d5c70c2b422b415d95645b9adcfd678cb1d63",
            "0x0000000000000000000000000000000000000000000000000000000000001010",
            "0x000000000000000000000000c11292764c310b988c50634ebe11c636c10ac554",
            "0x00000000000000000000000002f615e95563ef16f10354dba9e584e58d2d4314"
          ],
          "data": "0x000000000000000000000000000000000000000000000000000e1d02d63a4d8000000000000000000000000000000000000000000000000008aff9d743cbcd9a0000000000000000000000000000000000000000000001cca50b07fef9aff6ca00000000000000000000000000000000000000000000000008a1dcd46d91801a0000000000000000000000000000000000000000000001cca5192501cfea444a",
          "blockHash": "0xdb9dfedfd4e886e554d1a4df10f60de98ff1df413b690a537a0a9952a452331a",
          "blockNumber": "0x1870831",
          "transactionHash": "0x2ec30751a9b4a1b1fe626513e35236f39ad91ce4e970454ee656e8eba0e00104",
          "transactionIndex": "0x0",
          "logIndex": "0x1",
          "removed": false
        }
      ],
      "logsBloom": "0x00000000000000000000000000000000000000000000000000080008000000000000001000000000020000004000000000008000000000000000000000000000000000000000000001000000000000800000000000000000000100000000000000000000000000000020000000000000000000000000000080000000000000000000000000000000000001000000000000400000000000000000020100080000210000080000000000000000000000000000000000000000000000000000004000000000000000000001000000000000000000000000000000100000000000000000000000000000000000000000000000000000000000000000000000100000",
      "type": "0x2",
      "transactionHash": "0x2ec30751a9b4a1b1fe626513e35236f39ad91ce4e970454ee656e8eba0e00104",
      "transactionIndex": "0x0",
      "blockHash": "0xdb9dfedfd4e886e554d1a4df10f60de98ff1df413b690a537a0a9952a452331a",
      "blockNumber": "0x1870831",
      "gasUsed": "0x122de",
      "effectiveGasPrice": "0xc6be8657f",
      "from": "0xc11292764c310b988c50634ebe11c636c10ac554",
      "to": "0x0726a519599a0c0893ffc08d22450a2f34e1b796",
      "contractAddress": null
    },
    {
      "status": "0x1",
      "cumulativeGasUsed": "0x40cdb",
      "logs": [
        {
          "address": "0x0726a519599a0c0893ffc08d22450a2f34e1b796",
          "topics": [
            "0x8b6720886f060f10cda3e3ae0eb24b45f4feaad89bcf083282c63235875412ab",
            "0x0000000000000000000000000000000000000000000000000000000000000001",
            "0x000000000000000000000000c11292764c310b988c50634ebe11c636c10ac554"
          ],
          "data": "0x00000000000000000000000000000000000000000000000000000000000000010000000000000000000000000000000000000000000000000000000000000e100000000000000000000000000000000000000000000000000000000068ad81dc",
          "blockHash": "0xdb9dfedfd4e886e554d1a4df10f60de98ff1df413b690a537a0a9952a452331a",
          "blockNumber": "0x1870831",
          "transactionHash": "0xb306971a43435b21f908bd99853847f44c7dd7c45e76572944dca9e156498c4c",
          "transactionIndex": "0x1",
          "logIndex": "0x2",
          "removed": false
        },
        {
          "address": "0x0000000000000000000000000000000000001010",
          "topics": [
            "0x4dfe1bbbcf077ddc3e01291eea2d5c70c2b422b415d95645b9adcfd678cb1d63",
            "0x0000000000000000000000000000000000000000000000000000000000001010",
            "0x000000000000000000000000c11292764c310b988c50634ebe11c636c10ac554",
            "0x00000000000000000000000002f615e95563ef16f10354dba9e584e58d2d4314"
          ],
          "data": "0x0000000000000000000000000000000000000000000000000024324df353504000000000000000000000000000000000000000000000000008a1dcd46d49eb780000000000000000000000000000000000000000000001cca5192501cfea444a000000000000000000000000000000000000000000000000087daa8679f69b380000000000000000000000000000000000000000000001cca53d574fc33d948a",
          "blockHash": "0xdb9dfedfd4e886e554d1a4df10f60de98ff1df413b690a537a0a9952a452331a",
          "blockNumber": "0x1870831",
          "transactionHash": "0xb306971a43435b21f908bd99853847f44c7dd7c45e76572944dca9e156498c4c",
          "transactionIndex": "0x1",
          "logIndex": "0x3",
          "removed": false
        }
      ],
      "logsBloom": "0x00000000000000000000000000000000000000000000000000080008000000000000001000000000020000004000000000008000000000000000000000040000000000000000000000000000000000800000000000040000000100000000000000000000000000000000000000000000000100000000010080000000000000000000000000000000000001000000000000000000000000000000020000000000210000080000000000000000000000000000000000000000000000000000004000000000000000000001000000000000000000000000000000100000000040000000800000000000000000000000000000000000000000000000000000100000",
      "type": "0x2",
      "transactionHash": "0xb306971a43435b21f908bd99853847f44c7dd7c45e76572944dca9e156498c4c",
      "transactionIndex": "0x1",
      "blockHash": "0xdb9dfedfd4e886e554d1a4df10f60de98ff1df413b690a537a0a9952a452331a",
      "blockNumber": "0x1870831",
      "gasUsed": "0x2e9fd",
      "effectiveGasPrice": "0xc6be8657f",
      "from": "0xc11292764c310b988c50634ebe11c636c10ac554",
      "to": "0x0726a519599a0c0893ffc08d22450a2f34e1b796",
      "contractAddress": null
    }
  ],
  "libraries": [],
  "pending": [],
  "returns": {},
  "timestamp": 1756201436,
  "chain": 80002,
  "commit": "6260196"
}