{
  "transactions": [
    {
      "hash": "0xcb6148e5f822d99cb6fcea9167a0e2008a297d75b4cce265f9d709c6978a6b02",
      "transactionType": "CALL",
      "contractName": null,
      "contractAddress": "0x3acfaa35a8338493371bb2af600f5da32b691317",
      "function": "addMembers(address[])",
      "arguments": [
        "[0x70997970C51812dc3A010C7d01b50e0d17dc79C8, 0x3C44CdDdB6a900fa2b585dd299e03d12FA4293BC]"
      ],
      "transaction": {
        "from": "0xc11292764c310b988c50634ebe11c636c10ac554",
        "to": "0x3acfaa35a8338493371bb2af600f5da32b691317",
        "gas": "0x191c1",
        "value": "0x0",
        "input": "0x6f4d469b0000000000000000000000000000000000000000000000000000000000000020000000000000000000000000000000000000000000000000000000000000000200000000000000000000000070997970c51812dc3a010c7d01b50e0d17dc79c80000000000000000000000003c44cdddb6a900fa2b585dd299e03d12fa4293bc",
        "nonce": "0xa",
        "chainId": "0x13882"
      },
      "additionalContracts": [],
      "isFixedGasLimit": false
    },
    {
      "hash": "0xdd7ce51d90b3bdae9c82866ad8be5b6fc127ad08749f79842b9881fe9aa99c17",
      "transactionType": "CALL",
      "contractName": null,
      "contractAddress": "0x3acfaa35a8338493371bb2af600f5da32b691317",
      "function": "createVotingSession(string[],bool[],uint256)",
      "arguments": [
        "[Should we deploy to mainnet?]",
        "[false]",
        "3600"
      ],
      "transaction": {
        "from": "0xc11292764c310b988c50634ebe11c636c10ac554",
        "to": "0x3acfaa35a8338493371bb2af600f5da32b691317",
        "gas": "0x40664",
        "value": "0x0",
        "input": "0x26a38077000000000000000000000000000000000000000000000000000000000000006000000000000000000000000000000000000000000000000000000000000000e00000000000000000000000000000000000000000000000000000000000000e1000000000000000000000000000000000000000000000000000000000000000010000000000000000000000000000000000000000000000000000000000000020000000000000000000000000000000000000000000000000000000000000001c53686f756c64207765206465706c6f7920746f206d61696e6e65743f0000000000000000000000000000000000000000000000000000000000000000000000010000000000000000000000000000000000000000000000000000000000000000",
        "nonce": "0xb",
        "chainId": "0x13882"
      },
      "additionalContracts": [],
      "isFixedGasLimit": false
    }
  ],
  "receipts": [
    {
      "status": "0x1",
      "cumulativeGasUsed": "0x122de",
      "logs": [
        {
          "address": "0x3acfaa35a8338493371bb2af600f5da32b691317",
          "topics": [
            "0xdbb6dbf5abe4d1b228b366f1d25c84f6fde449194d58dd3cf3351142dae5ab60",
            "0xcead85dcdfcdc3f9aa5aa82658669488859283d53026229b179f017824d15a1f",
            "0x000000000000000000000000c11292764c310b988c50634ebe11c636c10ac554"
          ],
          "data": "0x0000000000000000000000000000000000000000000000000000000068ad8f3c",
          "blockHash": "0x9f7c543e426ed4eb2bc371006e1c092061e10fd812e82439a711dd7fe17e81da",
          "blockNumber": "0x1870e04",
          "transactionHash": "0xcb6148e5f822d99cb6fcea9167a0e2008a297d75b4cce265f9d709c6978a6b02",
          "transactionIndex": "0x0",
          "logIndex": "0x0",
          "removed": false
        },
        {
          "address": "0x0000000000000000000000000000000000001010",
          "topics": [
            "0x4dfe1bbbcf077ddc3e01291eea2d5c70c2b422b415d95645b9adcfd678cb1d63",
            "0x0000000000000000000000000000000000000000000000000000000000001010",
            "0x000000000000000000000000c11292764c310b988c50634ebe11c636c10ac554",
            "0x00000000000000000000000002f615e95563ef16f10354dba9e584e58d2d4314"
          ],
          "data": "0x000000000000000000000000000000000000000000000000000af009dac5e9620000000000000000000000000000000000000000000000000633a3a69e1f400c0000000000000000000000000000000000000000000001cd00d5cf5ddc22bb6c0000000000000000000000000000000000000000000000000628b39cc35956aa0000000000000000000000000000000000000000000001cd00e0bf67b6e8a4ce",
          "blockHash": "0x9f7c543e426ed4eb2bc371006e1c092061e10fd812e82439a711dd7fe17e81da",
          "blockNumber": "0x1870e04",
          "transactionHash": "0xcb6148e5f822d99cb6fcea9167a0e2008a297d75b4cce265f9d709c6978a6b02",
          "transactionIndex": "0x0",
          "logIndex": "0x1",
          "removed": false
        }
      ],
      "logsBloom": "0x00000000000000000000100000000000000000000000000000080008000000000000000000000000020000004000000000008000000000000000000000000000000000000000000001000000000000800000000000000000000100000000000000000000000000000020000000000000000000000000000080000000000000000000000000000080000000000000000000400000000000000000020100080000200000080000000000000000000000000000000000000000000000000000004000000000000000000001000000000000000000000000000000100010000000000000000000000000000000000000000000000000000000000000000000100000",
      "type": "0x2",
      "transactionHash": "0xcb6148e5f822d99cb6fcea9167a0e2008a297d75b4cce265f9d709c6978a6b02",
      "transactionIndex": "0x0",
      "blockHash": "0x9f7c543e426ed4eb2bc371006e1c092061e10fd812e82439a711dd7fe17e81da",
      "blockNumber": "0x1870e04",
      "gasUsed": "0x122de",
      "effectiveGasPrice": "0x9a0638c1e",
      "from": "0xc11292764c310b988c50634ebe11c636c10ac554",
      "to": "0x3acfaa35a8338493371bb2af600f5da32b691317",
      "contractAddress": null
    },
    {
      "status": "0x1",
      "cumulativeGasUsed": "0x40cdb",
      "logs": [
        {
          "address": "0x3acfaa35a8338493371bb2af600f5da32b691317",
          "topics": [
            "0x8b6720886f060f10cda3e3ae0eb24b45f4feaad89bcf083282c63235875412ab",
            "0x0000000000000000000000000000000000000000000000000000000000000001",
            "0x000000000000000000000000c11292764c310b988c50634ebe11c636c10ac554"
          ],
          "data": "0x00000000000000000000000000000000000000000000000000000000000000010000000000000000000000000000000000000000000000000000000000000e100000000000000000000000000000000000000000000000000000000068ad8f3c",
          "blockHash": "0x9f7c543e426ed4eb2bc371006e1c092061e10fd812e82439a711dd7fe17e81da",
          "blockNumber": "0x1870e04",
          "transactionHash": "0xdd7ce51d90b3bdae9c82866ad8be5b6fc127ad08749f79842b9881fe9aa99c17",
          "transactionIndex": "0x1",
          "logIndex": "0x2",
          "removed": false
        },
        {
          "address": "0x0000000000000000000000000000000000001010",
          "topics": [
            "0x4dfe1bbbcf077ddc3e01291eea2d5c70c2b422b415d95645b9adcfd678cb1d63",
            "0x0000000000000000000000000000000000000000000000000000000000001010",
            "0x000000000000000000000000c11292764c310b988c50634ebe11c636c10ac554",
            "0x00000000000000000000000002f615e95563ef16f10354dba9e584e58d2d4314"
          ],
          "data": "0x000000000000000000000000000000000000000000000000001c0d45346d32630000000000000000000000000000000000000000000000000628b39cc311c2080000000000000000000000000000000000000000000001cd00e0bf67b6e8a4ce000000000000000000000000000000000000000000000000060ca6578ea48fa50000000000000000000000000000000000000000000001cd00fcccaceb55d731",
          "blockHash": "0x9f7c543e426ed4eb2bc371006e1c092061e10fd812e82439a711dd7fe17e81da",
          "blockNumber": "0x1870e04",
          "transactionHash": "0xdd7ce51d90b3bdae9c82866ad8be5b6fc127ad08749f79842b9881fe9aa99c17",
          "transactionIndex": "0x1",
          "logIndex": "0x3",
          "removed": false
        }
      ],
      "logsBloom": "0x00000000000000000000100000000000000000000000000000080008000000000000000000000000020000004000000000008000000000000000000000040000000000000000000000000000000000800000000000040000000100000000000000000000000000000000000000000000000100000000010080000000000000000000000000000080000000000000000000000000000000000000020000000000200000080000000000000000000000000000000000000000000000000000004000000000000000000001000000000000000000000000000000100010000040000000800000000000000000000000000000000000000000000000000000100000",
      "type": "0x2",
      "transactionHash": "0xdd7ce51d90b3bdae9c82866ad8be5b6fc127ad08749f79842b9881fe9aa99c17",
      "transactionIndex": "0x1",
      "blockHash": "0x9f7c543e426ed4eb2bc371006e1c092061e10fd812e82439a711dd7fe17e81da",
      "blockNumber": "0x1870e04",
      "gasUsed": "0x2e9fd",
      "effectiveGasPrice": "0x9a0638c1e",
      "from": "0xc11292764c310b988c50634ebe11c636c10ac554",
      "to": "0x3acfaa35a8338493371bb2af600f5da32b691317",
      "contractAddress": null
    }
  ],
  "libraries": [],
  "pending": [],
  "returns": {},
  "timestamp": 1756204859,
  "chain": 80002,
  "commit": "c825a74"
}